:020000040000FA
:100000000C9462000C943A050C9413050C948A002D
:100010000C948A000C948A000C948A000C948A0038
:100020000C948A000C948A000C948A000C94B905F4
:100030000C948A000C948A000C948A000C948A0018
:100040000C94C9040C948A000C9487050C946105E7
:100050000C948A000C948A000C948A000C948A00F8
:100060000C948A000C948A000000000024002700F1
:100070002A0000000000250028002B0000000000DE
:1000800023002600290004040404040404040202DA
:100090000202020203030303030301020408102007
:1000A0004080010204081020010204081020000012
:1000B0000008000201000003040700000000000027
:1000C00000001D0711241FBECFEFD8E0DEBFCDBF5B
:1000D00011E0A0E0B1E0E8EBF9E102C005900D927B
:1000E000AC32B107D9F722E0ACE2B1E001C01D9219
:1000F000A935B207E1F710E0C2E6D0E004C02197CD
:10010000FE010E94D40CC136D107C9F70E94A00796
:100110000C94DA0C0C940000FC01538D448D252FB7
:1001200030E0842F90E0821B930B541710F0CF9691
:10013000089501970895FC01918D828D981761F0C3
:10014000A28DAE0FBF2FB11D5D968C91928D9F5FDA
:100150009F73928F90E008958FEF9FEF0895FC01B9
:10016000918D828D981731F0828DE80FF11D858D6C
:1001700090E008958FEF9FEF0895FC01918D228DFF
:10018000892F90E0805C9F4F821B91098F73992784
:100190000895FC01A48DA80FB92FB11DA35ABF4F1C
:1001A0002C91848D90E001968F739927848FA68976
:1001B000B7892C93A089B1898C91837080648C93CA
:1001C000938D848D981306C00288F389E02D808179
:1001D0008F7D80830895EF92FF920F931F93CF93AB
:1001E000DF93EC0181E0888F9B8D8C8D98131AC072
:1001F000E889F989808185FF15C09FB7F894EE8959
:10020000FF896083E889F9898081837080648083B5
:100210009FBF81E090E0DF91CF911F910F91FF9000
:10022000EF900895F62E0B8D10E00F5F1F4F0F73A8
:100230001127E02E8C8D8E110CC00FB607FCFACF63
:10024000E889F989808185FFF5CFCE010E94C90038
:10025000F1CFEB8DEC0FFD2FF11DE35AFF4FF08234
:100260009FB7F8940B8FEA89FB8980818062CFCF9A
:10027000CF93DF93EC01888D8823B9F0AA89BB89DD
:10028000E889F9898C9185FD03C0808186FD0DC0C8
:100290000FB607FCF7CF8C9185FFF2CF808185FFE9
:1002A000EDCFCE010E94C900E9CFDF91CF91089533
:1002B0008FE491E00E94BD0021E0892B09F420E049
:1002C000822F089580E090E0892B29F00E94580148
:1002D00081110C9400000895833081F028F481305E
:1002E00099F08230A9F008958730A9F08830C9F0DC
:1002F0008430B1F4809180008F7D03C080918000B4
:100300008F7780938000089584B58F7784BD08959A
:1003100084B58F7DFBCF8091B0008F778093B00044
:1003200008958091B0008F7DF9CFCF93DF93282F70
:1003300030E0F901E255FF4F8491F901E656FF4F95
:10034000D491F901EA57FF4FC491CC23A1F0811158
:100350000E946C01EC2FF0E0EE0FFF1FE458FF4FFE
:10036000A591B491EC91ED2381E090E009F480E057
:10037000DF91CF91089580E090E0FACF1F93CF9363
:10038000DF93282F30E0F901E255FF4F8491F90106
:10039000E656FF4FD491F901EA57FF4FC491CC23A1
:1003A000A9F0162F81110E946C01EC2FF0E0EE0FE6
:1003B000FF1FEE58FF4FA591B4918FB7F894EC91C1
:1003C000111108C0D095DE23DC938FBFDF91CF9150
:1003D0001F910895DE2BF8CFCF93DF9390E0FC01BF
:1003E000E656FF4F24918A579F4FFC018491882342
:1003F000D1F090E0880F991FFC01E859FF4FA591BB
:10040000B491FC01EE58FF4FC591D49161110EC01B
:100410009FB7F8948C91E22FE0958E238C932881DE
:10042000E223E8839FBFDF91CF9108958FB7F894BF
:10043000EC91E22BEC938FBFF6CF8E3008F08E500C
:100440008770806480937C0080917A0080648093C0
:100450007A0080917A0086FDFCCF8091780090919F
:10046000790008953FB7F89480914B0190914C0129
:10047000A0914D01B0914E0126B5A89B05C02F3F1C
:1004800019F00196A11DB11D3FBFBA2FA92F982FBA
:100490008827BC01CD01620F711D811D911D42E0B5
:1004A000660F771F881F991F4A95D1F708958F927D
:1004B0009F92AF92BF92CF92DF92EF92FF924B0149
:1004C0005C010E9432026B017C010E9432026C19B5
:1004D0007D098E099F09683E734081059105A8F347
:1004E00021E0821A9108A108B10888EEC80E83E0C5
:1004F000D81EE11CF11C81149104A104B10429F758
:10050000FF90EF90DF90CF90BF90AF909F908F9033
:10051000089581E080932D0108950895AF92BF92D0
:10052000CF92DF92EF92FF920F931F93CF93DF93BF
:100530006C017B018B01040F151FEB015E01AE18EE
:10054000BF08C017D10759F06991D601ED91FC9110
:100550000190F081E02DC6010995892B79F7C5013D
:10056000DF91CF911F910F91FF90EF90DF90CF908F
:10057000BF90AF9008951F93CF93DF93EC01162F98
:1005800088818C3008F048C061E0812F0E94EC0126
:10059000888198E0899FF0011124E451FE4F1F7378
:1005A0006081607C612B608319821A822CE0622F4B
:1005B0000E94C80C829FB001112430E020E0FB01B2
:1005C000E20FF31F93E0EE0FFF1F9A95E1F7E4515E
:1005D000FE4F908196FD16C02F5F3F4F2C303105A6
:1005E00071F781110FC01092800082E0809381002A
:1005F0001092850010928400B19A80916F00826001
:1006000080936F00E88188E0E89FF0011124E451B5
:10061000FE4F8081806480838881DF91CF911F911C
:100620000895BF92CF92DF92EF92FF920F931F93A4
:10063000CF93DF938C01FC01B080F8E0BF9EE00116
:100640001124FE01E451FE4F74836383603282E023
:100650007807DCF5F8018181A8E8CA2ED12CC81AE8
:10066000D10887FDD394CC0CDD1CCC0CDD1C0D2CEB
:10067000000CEE08FF08828128E532E0281B3109D2
:1006800087FD3395220F331F220F331F032E000CDB
:10069000440B550B2C193D094E095F09DB01653BE5
:1006A000710514F0A4EBB0E0B7FF02C0B0E0A0E029
:1006B0000E944C0A24EB30E040E050E00E94220A05
:1006C000C20ED31EE41EF51EB601FBE0FB1550F171
:1006D000F801218188E890E0821B910927FD93951C
:1006E000880F991F880F991F681779077CF022815E
:1006F00088E592E0821B910927FD9395880F991F49
:10070000880F991F681779070CF4CB012FB7F8945D
:10071000C451DE4F0297880F991F9E838D8384E119
:100720008F832FBFDF91CF911F910F91FF90EF909B
:10073000DF90CF90BF900895FC0101900020E9F771
:100740003197AF01481B590BBC018FE491E00C9429
:100750008E028F929F92AF92BF920F931F93CF936F
:10076000DF93CDB7DEB7A1970FB6F894DEBF0FBE0B
:10077000CDBF19A2423008F44AE08E010F5D1F4F31
:10078000842E912CB12CA12CA50194010E94540A15
:10079000E62FB901CA01EA30F4F4E05DD801EE9326
:1007A0008D01232B242B252B79F790E080E01097E7
:1007B00019F0CD010E949C03A1960FB6F894DEBFFC
:1007C0000FBECDBFDF91CF911F910F91BF90AF9022
:1007D0009F908F900895E95CE1CF4F925F926F9266
:1007E0007F928F929F92AF92BF92CF92DF92EF92C1
:1007F000FF920F931F93CF936B017C01742EAC017A
:100800009B010E94C30C882399F08AE191E0CF916B
:100810001F910F91FF90EF90DF90CF90BF90AF901E
:100820009F908F907F906F905F904F900C949C035F
:1008300046015701E894B7F82FEF3FEF4FE75FE726
:10084000C501B4010E94C30C81110DC02FEF3FEF11
:100850004FE75FE7C501B4010E94F20A18161CF4C5
:100860008EE191E0D4CF2FEF3FEF4FE75FE4C70178
:10087000B6010E94510C18161CF482E291E0C7CF19
:100880002FEF3FEF4FE75FECC701B6010E94F20A7E
:1008900087FDF3CF20E030E0A901C701B6010E9437
:1008A000F20A10E000E087FF0AC06DE28FE491E0F9
:1008B0000E94EB008C01F7FAF094F7F8F094C0E096
:1008C00060E070E080E09FE37C1641F020E030E0E3
:1008D00040E251E40E94F70ACF5FF6CFA7019601EC
:1008E0000E94860A2B013C010E94700B4B015C01A7
:1008F0004AE00E94A9037C01E00EF11ECC23C1F165
:10090000C501B4010E949F0B9B01AC01C301B20160
:100910000E94850A4B015C016EE28FE491E00E9427
:10092000EB00E80EF91EC15018F120E030E040E283
:1009300051E4C501B4010E94560C2B013C010E94F8
:10094000700B4B01B12CA12C4AE0C501B4010E94EF
:10095000A903E80EF91EC501B4010E949F0B9B017B
:10096000AC01C301B2010E94850A4B015C01DBCFDF
:10097000C701CF911F910F91FF90EF90DF90CF9023
:10098000BF90AF909F908F907F906F905F904F90AF
:1009900008951F920F920FB60F9211242F933F9339
:1009A0008F939F93AF93BF9380914701909148019C
:1009B000A0914901B0914A013091460123E0230FF3
:1009C0002D3758F50196A11DB11D20934601809346
:1009D000470190934801A0934901B0934A01809147
:1009E0004B0190914C01A0914D01B0914E010196A7
:1009F000A11DB11D80934B0190934C01A0934D011B
:100A0000B0934E01BF91AF919F918F913F912F91E4
:100A10000F900FBE0F901F90189526E8230F029697
:100A2000A11DB11DD2CF1F920F920FB60F921124AC
:100A30002F933F934F935F936F937F938F939F93E6
:100A4000AF93BF93EF93FF93E0910201F091030105
:100A50000995FF91EF91BF91AF919F918F917F91F8
:100A60006F915F914F913F912F910F900FBE0F901B
:100A70001F9018951F920F920FB60F9211242F936B
:100A80003F934F935F936F937F938F939F93AF9316
:100A9000BF93EF93FF93E0910001F091010109955D
:100AA000FF91EF91BF91AF919F918F917F916F9146
:100AB0005F914F913F912F910F900FBE0F901F901C
:100AC00018951F920F920FB60F9211242F933F93F8
:100AD0004F935F936F937F938F939F93AF93BF9346
:100AE000EF93FF938FE491E00E94C900FF91EF9193
:100AF000BF91AF919F918F917F916F915F914F9136
:100B00003F912F910F900FBE0F901F9018951F923D
:100B10000F920FB60F9211242F938F939F93EF9301
:100B2000FF93E0915F01F09160018081E0916501A8
:100B3000F091660182FD1BC09081809168018F5FFA
:100B40008F7320916901821741F0E0916801F0E014
:100B5000E15BFE4F958F80936801FF91EF919F912C
:100B60008F912F910F900FBE0F901F90189580813D
:100B7000F4CF1F920F920FB60F9211242F933F9331
:100B80004F935F936F937F938F939F93AF93BF9395
:100B9000CF93DF93EF93FF9380912C01C0914C0290
:100BA000D0E087FF23C010928500109284008091CE
:100BB0002C018F5F80932C0180912C01082E000C5A
:100BC000990B8C179D0724F480912C018C307CF1BB
:100BD000809184009091850084349C4908F423C15D
:100BE000809184009091850004961FC180912C0112
:100BF000082E000C990B8C179D07CCF6E0912C0168
:100C000028E0E202F0011124E451FE4F808186FFCA
:100C1000CECFE0912C0188E0E802F0011124E451EC
:100C2000FE4F808160E08F730E94BE01C0CFE091D3
:100C30002C0188E0E802F0011124E451FE4F878185
:100C4000882309F468C0A0912C01E0912C0128E0D0
:100C5000A202D0011124A451BE4F88E0E802F001A5
:100C60001124E451FE4F15962D913C918181928182
:100C7000A0912C01E0912C018217930708F08AC003
:100C800028E0E202F0011124E451FE4F88E0A802BE
:100C9000D0011124A451BE4F17968C91218132812D
:100CA000820F932F911D92838183A0912C01E0915B
:100CB0002C0128E0A202D0011124A451BE4F88E0EB
:100CC000E802F0011124E451FE4F15962D913C915C
:100CD0008181928182179307F0F0A0912C01E0911D
:100CE0002C0128E0E202F0011124E451FE4F88E0DB
:100CF000A802D0011124A451BE4F15968D919C914C
:100D000092838183E0912C0128E0E202F00111241A
:100D1000E451FE4F17828091840090918500E0910C
:100D20002C0128E0E202F0011124E451FE4F218160
:100D30003281820F931F9093890080938800E09105
:100D40002C0188E0E802F0011124E451FE4F80817B
:100D500086FF0DC0E0912C0128E0E202F001112491
:100D6000E451FE4F808161E08F730E94BE01FF91CC
:100D7000EF91DF91CF91BF91AF919F918F917F9133
:100D80006F915F914F913F912F910F900FBE0F90F8
:100D90001F90189588E0E802F0011124E451FE4FFD
:100DA00028E0A202D0011124A451BE4F17962C9125
:100DB00081819281821B910992838183A0912C0170
:100DC000E0912C0188E0A802D0011124A451BE4F6B
:100DD00028E0E202F0011124E451FE4F15962D9116
:100DE0003C91818192812817390708F494CFA09112
:100DF0002C01E0912C0188E0E802F0011124E4517B
:100E0000FE4F28E0A202D0011124A451BE4F159636
:100E10008D919C9192838183E0912C0188E0E8027E
:100E2000F001112475CF80E49CE9909389008093B0
:100E300088008FEF80932C019ACF1092520110926C
:100E4000510188EE93E0A0E0B0E0809353019093CD
:100E50005401A0935501B09356018CE091E090931A
:100E6000500180934F0185EC90E090935C0180935A
:100E70005B0184EC90E090935E0180935D0180ECD7
:100E800090E09093600180935F0181EC90E09093FB
:100E900062018093610182EC90E090936401809301
:100EA000630186EC90E09093660180936501109257
:100EB00068011092690110926A0110926B01E09131
:100EC0004C02EC30A8F581E08E0F80934C02E09349
:100ED000530288E0E89FF0011124E451FE4F88EBB3
:100EE0009BE0928381831092580284E091E090937A
:100EF000570280935602E0914C02EC30E8F481E016
:100F00008E0F80934C02E0934D0288E0E89FF00141
:100F10001124E451FE4F88EB9BE092838183109271
:100F2000520284E091E09093510280935002089520
:100F30008FEF80935302DFCF8FEF80934D020895A0
:100F4000789484B5826084BD84B5816084BD85B5A4
:100F5000826085BD85B5816085BD80916E008160B0
:100F600080936E0010928100809181008260809356
:100F70008100809181008160809381008091800058
:100F80008160809380008091B10084608093B10083
:100F90008091B00081608093B00080917A0084607D
:100FA00080937A0080917A00826080937A008091A9
:100FB0007A00816080937A0080917A0080688093C3
:100FC0007A001092C10061E084E00E94EC0161E0CF
:100FD00083E00E94EC0160E080E10E94EC0160E0AF
:100FE0008EE00E94EC0160E081E00E94EC0161E093
:100FF00081E00E94EC0160E084E00E94EC0161E08D
:1010000081E00E94EC0164E070E083E592E00E94E0
:10101000BB0263E070E08DE492E00E94BB0268EEE8
:1010200073E080E090E00E9457026AE570E083E59B
:1010300092E00E9411036AE570E08DE492E00E9464
:10104000110380E090E0A0E8B0E480933A0190932F
:101050003B01A0933C01B0933D0180E090E0A0E80B
:10106000B1EC8093360190933701A0933801B0938F
:10107000390189E892E09093010180930001809109
:1010800069008C7F826080936900E89A68EE73E063
:1010900080E090E00E945702C0E0D0E0812C912CCB
:1010A000A12C84E4B82E80E10E941D02BC01990F9E
:1010B000880B990B0E94A10B2B013C01409242012D
:1010C0005092430160924401709245018EE00E946B
:1010D0001D02BC01990F880B990B0E94A10B6B019B
:1010E0007C01C0923E01D0923F01E0924001F0921B
:1010F000410120E030E04AEF53E4C301B2010E9415
:10110000510C87FD12C020E030E043E054E4C301FD
:10111000B2010E94F20A181644F0809242019092A5
:101120004301A0924401B092450120E030E04AEF33
:1011300053E4C701B6010E94510C87FD12C020E0A4
:1011400030E043E054E4C701B6010E94F20A1816E9
:1011500044F080923E0190923F01A0924001B092F3
:10116000410160914201709143018091440190914D
:1011700045010E94690B9B01AC01A0E3B0E00E9415
:10118000410A2FEF33E040E050E00E94220ACA01FA
:10119000B9016E5B7F4F8F4F9F4F0E94A10B2B01B8
:1011A0003C0140924201509243016092440170928E
:1011B000450160913E0170913F0180914001909105
:1011C00041010E94690B9B01AC01A2E3B0E00E94C7
:1011D000410A2FEF33E040E050E00E94220ACA01AA
:1011E000B9016F5B7F4F8F4F9F4F0E94A10B6B0127
:1011F0007C01C0923E01D0923F01E0924001F0920A
:10120000410189E00E949501892BD9F489E00E946F
:101210009501892BD9F320E030E040E05FE3609155
:101220003A0170913B0180913C0190913D010E94F7
:10123000850A60933A0170933B0180933C0190933F
:101240003D018AE00E949501892BD9F48AE00E9431
:101250009501892BD9F320E030E040E05FE3609115
:101260003A0170913B0180913C0190913D010E94B7
:10127000860A60933A0170933B0180933C019093FE
:101280003D0188E00E949501892BA9F488E00E9425
:101290009501892BD9F310923A0110923B011092DB
:1012A0003C0110923D0110923601109237011092CC
:1012B00038011092390187E00E949501892BD9F4F9
:1012C00087E00E949501892BD9F328E431EE4AEF9B
:1012D0005EE3609136017091370180913801909101
:1012E00039010E94850A609336017093370180931B
:1012F00038019093390186E00E949501892BD9F439
:1013000086E00E949501892BD9F328E431EE4AEF5B
:101310005EE36091360170913701809138019091C0
:1013200039010E94860A60933601709337018093D9
:1013300038019093390120913A0130913B0140915D
:101340003C0150913D01C301B2010E94860A2B016C
:101350003C0140923201509233016092340170920C
:10136000350120913601309137014091380150917B
:101370003901C701B6010E94860A6B017C01C09247
:101380002E01D0922F01E0923001F09231010E94A3
:10139000690B8DE492E00E941103C301B2010E9427
:1013A000690B83E592E00E94110381E00E949501A0
:1013B00061E0019709F060E081E00E94BE0184E0F5
:1013C0000E941D02BC01990F880B990B0E94A10B72
:1013D00020E030E043E354E40E94F20A61E0181692
:1013E0000CF460E081E00E94BE0180912D01882311
:1013F000C1F042E0C701B6010E94ED0386E291E030
:101400000E949C03609132017091330180913401FC
:101410009091350142E00E94ED0388E291E00E9444
:101420009C0362E370E080E090E00E945702209706
:1014300009F439CE0E945801882309F434CE0E9461
:10144000000031CE052E97FB1EF400940E94390A4D
:1014500057FD07D00E94540A07FC03D04EF40C94A9
:10146000390A50954095309521953F4F4F4F5F4F2A
:10147000089590958095709561957F4F8F4F9F4F00
:1014800008950E94760AA59F900DB49F900DA49F89
:10149000800D911D11240895B7FF0C94410A0E94FC
:1014A000410A821B930B0895A1E21A2EAA1BBB1BB3
:1014B000FD010DC0AA1FBB1FEE1FFF1FA217B30720
:1014C000E407F50720F0A21BB30BE40BF50B661F36
:1014D000771F881F991F1A9469F7609570958095FA
:1014E00090959B01AC01BD01CF010895A29FB00171
:1014F000B39FC001A39F700D811D1124911DB29F48
:10150000700D811D1124911D08955058BB27AA27E5
:101510000E949D0A0C94170C0E94090C38F00E943E
:10152000100C20F039F49F3F19F426F40C94060CAB
:101530000EF4E095E7FB0C94000CE92F0E94280CB8
:1015400058F3BA17620773078407950720F079F4F8
:10155000A6F50C944A0C0EF4E0950B2EBA2FA02D94
:101560000B01B90190010C01CA01A0011124FF2750
:10157000591B99F0593F50F4503E68F11A16F0404B
:10158000A22F232F342F4427585FF3CF469537954A
:101590002795A795F0405395C9F77EF41F16BA0B0F
:1015A000620B730B840BBAF09150A1F0FF0FBB1FBD
:1015B000661F771F881FC2F70EC0BA0F621F731F06
:1015C000841F48F4879577956795B795F7959E3F63
:1015D00008F0B0CF9395880F08F09927EE0F9795F4
:1015E000879508950E94DC0B08F481E008950E941D
:1015F0000B0B0C94170C0E94100C58F00E94090C55
:1016000040F029F45F3F29F00C94000C51110C9428
:101610004B0C0C94060C0E94280C68F39923B1F330
:10162000552391F3951B550BBB27AA276217730708
:10163000840738F09F5F5F4F220F331F441FAA1F9C
:10164000A9F335D00E2E3AF0E0E832D09150504058
:10165000E695001CCAF72BD0FE2F29D0660F771F06
:10166000881FBB1F261737074807AB07B0E809F0EC
:10167000BB0B802DBF01FF2793585F4F3AF09E3F71
:10168000510578F00C94000C0C944B0C5F3FE4F384
:10169000983ED4F3869577956795B795F7959F5FB4
:1016A000C9F7880F911D9695879597F90895E1E000
:1016B000660F771F881FBB1F621773078407BA075F
:1016C00020F0621B730B840BBA0BEE1F88F7E095BA
:1016D00008950E94700B6894B1110C944B0C0895FE
:1016E0000E94300C88F09F5798F0B92F9927B75176
:1016F000B0F0E1F0660F771F881F991F1AF0BA95B6
:10170000C9F714C0B13091F00E944A0CB1E00895BD
:101710000C944A0C672F782F8827B85F39F0B93FAF
:10172000CCF3869577956795B395D9F73EF4909568
:101730008095709561957F4F8F4F9F4F0895E894E6
:1017400009C097FB3EF490958095709561957F4F09
:101750008F4F9F4F9923A9F0F92F96E9BB279395B7
:10176000F695879577956795B795F111F8CFFAF4C7
:10177000BB0F11F460FF1BC06F5F7F4F8F4F9F4FF8
:1017800016C0882311F096E911C0772321F09EE856
:10179000872F762F05C0662371F096E8862F70E0BC
:1017A00060E02AF09A95660F771F881FDAF7880F96
:1017B0009695879597F90895990F0008550FAA0BEC
:1017C000E0E8FEEF16161706E807F907C0F0121654
:1017D0001306E407F50798F0621B730B840B950B57
:1017E00039F40A2661F0232B242B252B21F40895AC
:1017F0000A2609F4A140A6958FEF811D811D089549
:1018000097F99F6780E870E060E008959FEF80ECB3
:10181000089500240A941616170618060906089556
:1018200000240A9412161306140605060895092EBC
:101830000394000C11F4882352F0BB0F40F4BF2B2B
:1018400011F460FF04C06F5F7F4F8F4F9F4F08956B
:1018500057FD9058440F551F59F05F3F71F0479561
:10186000880F97FB991F61F09F3F79F08795089546
:10187000121613061406551FF2CF4695F1DF08C065
:10188000161617061806991FF1CF86957105610582
:1018900008940895E894BB2766277727CB0197F92A
:1018A00008950E94DC0B08F48FEF08950E94690CE4
:1018B0000C94170C0E94090C38F00E94100C20F0B8
:1018C000952311F00C94000C0C94060C11240C942C
:1018D0004B0C0E94280C70F3959FC1F3950F50E0BC
:1018E000551F629FF001729FBB27F00DB11D639FD2
:1018F000AA27F00DB11DAA1F649F6627B00DA11D78
:10190000661F829F2227B00DA11D621F739FB00D1D
:10191000A11D621F839FA00D611D221F749F33278D
:10192000A00D611D231F849F600D211D822F762F26
:101930006A2F11249F5750409AF0F1F088234AF003
:10194000EE0FFF1FBB1F661F771F881F915050406F
:10195000A9F79E3F510580F00C94000C0C944B0CA1
:101960005F3FE4F3983ED4F3869577956795B795F6
:10197000F795E7959F5FC1F7FE2B880F911D969510
:10198000879597F908950E94DC0B880B990B0895B1
:10199000991B79E004C0991F961708F0961B881FC1
:1019A0007A95C9F780950895EE0FFF1F0590F49181
:1019B000E02D0994F894FFCF8D028D0200642D6410
:1019C00000000000EB008E028C003801BD009B007F
:1019D000AF006E616E00696E66006F7666002C0067
:0419E0000D0A0000EC
:107E0000112484B714BE81FFF0D085E080938100F7
:107E100082E08093C00088E18093C10086E0809377
:107E2000C20080E18093C4008EE0C9D0259A86E02C
:107E300020E33CEF91E0309385002093840096BBD3
:107E4000B09BFECF1D9AA8958150A9F7CC24DD24C4
:107E500088248394B5E0AB2EA1E19A2EF3E0BF2EE7
:107E6000A2D0813461F49FD0082FAFD0023811F036
:107E7000013811F484E001C083E08DD089C08234E0
:107E800011F484E103C0853419F485E0A6D080C0E4
:107E9000853579F488D0E82EFF2485D0082F10E0AE
:107EA000102F00270E291F29000F111F8ED06801E7
:107EB0006FC0863521F484E090D080E0DECF843638
:107EC00009F040C070D06FD0082F6DD080E0C81688
:107ED00080E7D80618F4F601B7BEE895C0E0D1E017
:107EE00062D089930C17E1F7F0E0CF16F0E7DF06D8
:107EF00018F0F601B7BEE89568D007B600FCFDCFD4
:107F0000A601A0E0B1E02C9130E011968C91119780
:107F100090E0982F8827822B932B1296FA010C0160
:107F200087BEE89511244E5F5F4FF1E0A038BF0790
:107F300051F7F601A7BEE89507B600FCFDCF97BE46
:107F4000E89526C08437B1F42ED02DD0F82E2BD052
:107F50003CD0F601EF2C8F010F5F1F4F84911BD097
:107F6000EA94F801C1F70894C11CD11CFA94CF0C13
:107F7000D11C0EC0853739F428D08EE10CD085E9AC
:107F80000AD08FE07ACF813511F488E018D01DD067
:107F900080E101D065CF982F8091C00085FFFCCF94
:107FA0009093C60008958091C00087FFFCCF809118
:107FB000C00084FD01C0A8958091C6000895E0E648
:107FC000F0E098E1908380830895EDDF803219F02E
:107FD00088E0F5DFFFCF84E1DECF1F93182FE3DFCA
:107FE0001150E9F7F2DF1F91089580E0E8DFEE27F6
:047FF000FF270994CA
:027FFE00040479
:00000001FF
